{
  "contractName": "Market",
  "abi": [
    {
      "constant": true,
      "inputs": [
        {
          "name": "",
          "type": "address"
        }
      ],
      "name": "userBalance",
      "outputs": [
        {
          "name": "timeStart",
          "type": "uint256"
        },
        {
          "name": "currentFund",
          "type": "uint256"
        }
      ],
      "payable": false,
      "stateMutability": "view",
      "type": "function"
    },
    {
      "constant": true,
      "inputs": [
        {
          "name": "",
          "type": "address"
        },
        {
          "name": "",
          "type": "uint256"
        }
      ],
      "name": "buyerItems",
      "outputs": [
        {
          "name": "",
          "type": "uint256"
        }
      ],
      "payable": false,
      "stateMutability": "view",
      "type": "function"
    },
    {
      "constant": true,
      "inputs": [],
      "name": "buyBackRate",
      "outputs": [
        {
          "name": "",
          "type": "uint256"
        }
      ],
      "payable": false,
      "stateMutability": "view",
      "type": "function"
    },
    {
      "constant": true,
      "inputs": [],
      "name": "pointContract",
      "outputs": [
        {
          "name": "",
          "type": "address"
        }
      ],
      "payable": false,
      "stateMutability": "view",
      "type": "function"
    },
    {
      "constant": true,
      "inputs": [],
      "name": "interestRate",
      "outputs": [
        {
          "name": "",
          "type": "uint256"
        }
      ],
      "payable": false,
      "stateMutability": "view",
      "type": "function"
    },
    {
      "constant": true,
      "inputs": [
        {
          "name": "",
          "type": "uint256"
        }
      ],
      "name": "items",
      "outputs": [
        {
          "name": "name",
          "type": "string"
        },
        {
          "name": "price",
          "type": "uint256"
        },
        {
          "name": "owner",
          "type": "address"
        },
        {
          "name": "imageUrl",
          "type": "string"
        },
        {
          "name": "itemType",
          "type": "uint256"
        },
        {
          "name": "isSelling",
          "type": "bool"
        }
      ],
      "payable": false,
      "stateMutability": "view",
      "type": "function"
    },
    {
      "constant": true,
      "inputs": [],
      "name": "managerAddress",
      "outputs": [
        {
          "name": "",
          "type": "address"
        }
      ],
      "payable": false,
      "stateMutability": "view",
      "type": "function"
    },
    {
      "constant": true,
      "inputs": [
        {
          "name": "",
          "type": "uint256"
        }
      ],
      "name": "sellingItems",
      "outputs": [
        {
          "name": "",
          "type": "uint256"
        }
      ],
      "payable": false,
      "stateMutability": "view",
      "type": "function"
    },
    {
      "inputs": [
        {
          "name": "oracle",
          "type": "address"
        }
      ],
      "payable": false,
      "stateMutability": "nonpayable",
      "type": "constructor"
    },
    {
      "anonymous": false,
      "inputs": [
        {
          "indexed": false,
          "name": "id",
          "type": "uint256"
        },
        {
          "indexed": false,
          "name": "price",
          "type": "uint256"
        },
        {
          "indexed": false,
          "name": "owner",
          "type": "address"
        }
      ],
      "name": "Sell",
      "type": "event"
    },
    {
      "anonymous": false,
      "inputs": [
        {
          "indexed": false,
          "name": "id",
          "type": "uint256"
        },
        {
          "indexed": false,
          "name": "price",
          "type": "uint256"
        }
      ],
      "name": "Buy",
      "type": "event"
    },
    {
      "anonymous": false,
      "inputs": [
        {
          "indexed": false,
          "name": "amount",
          "type": "uint256"
        }
      ],
      "name": "WithdrawStake",
      "type": "event"
    },
    {
      "constant": false,
      "inputs": [
        {
          "name": "_pointContractAddress",
          "type": "address"
        }
      ],
      "name": "setPointContract",
      "outputs": [],
      "payable": false,
      "stateMutability": "nonpayable",
      "type": "function"
    },
    {
      "constant": false,
      "inputs": [
        {
          "name": "_buyBackRate",
          "type": "uint256"
        }
      ],
      "name": "setBuyBackRate",
      "outputs": [],
      "payable": false,
      "stateMutability": "nonpayable",
      "type": "function"
    },
    {
      "constant": false,
      "inputs": [
        {
          "name": "_interestRate",
          "type": "uint256"
        }
      ],
      "name": "setInterestRate",
      "outputs": [],
      "payable": false,
      "stateMutability": "nonpayable",
      "type": "function"
    },
    {
      "constant": true,
      "inputs": [],
      "name": "getAllItems",
      "outputs": [
        {
          "name": "",
          "type": "uint256[]"
        },
        {
          "name": "",
          "type": "bool[]"
        }
      ],
      "payable": false,
      "stateMutability": "view",
      "type": "function"
    },
    {
      "constant": true,
      "inputs": [],
      "name": "getSellingItems",
      "outputs": [
        {
          "name": "",
          "type": "uint256[]"
        }
      ],
      "payable": false,
      "stateMutability": "view",
      "type": "function"
    },
    {
      "constant": true,
      "inputs": [
        {
          "name": "_id",
          "type": "uint256"
        }
      ],
      "name": "getItemById",
      "outputs": [
        {
          "name": "",
          "type": "uint256"
        },
        {
          "name": "",
          "type": "address"
        },
        {
          "name": "",
          "type": "string"
        },
        {
          "name": "",
          "type": "uint256"
        },
        {
          "name": "",
          "type": "string"
        }
      ],
      "payable": false,
      "stateMutability": "view",
      "type": "function"
    },
    {
      "constant": true,
      "inputs": [
        {
          "name": "_owner",
          "type": "address"
        }
      ],
      "name": "itemsOf",
      "outputs": [
        {
          "name": "",
          "type": "uint256[]"
        }
      ],
      "payable": false,
      "stateMutability": "view",
      "type": "function"
    },
    {
      "constant": true,
      "inputs": [],
      "name": "getMarketBalance",
      "outputs": [
        {
          "name": "",
          "type": "uint256"
        }
      ],
      "payable": false,
      "stateMutability": "view",
      "type": "function"
    },
    {
      "constant": false,
      "inputs": [
        {
          "name": "_name",
          "type": "string"
        },
        {
          "name": "_price",
          "type": "uint256"
        },
        {
          "name": "_owner",
          "type": "address"
        },
        {
          "name": "_imageUrl",
          "type": "string"
        },
        {
          "name": "_itemType",
          "type": "uint256"
        }
      ],
      "name": "sell",
      "outputs": [],
      "payable": false,
      "stateMutability": "nonpayable",
      "type": "function"
    },
    {
      "constant": false,
      "inputs": [
        {
          "name": "_id",
          "type": "uint256"
        }
      ],
      "name": "buy",
      "outputs": [],
      "payable": true,
      "stateMutability": "payable",
      "type": "function"
    },
    {
      "constant": true,
      "inputs": [
        {
          "name": "account",
          "type": "address"
        }
      ],
      "name": "getWithdrawableStake",
      "outputs": [
        {
          "name": "",
          "type": "uint256"
        }
      ],
      "payable": false,
      "stateMutability": "view",
      "type": "function"
    },
    {
      "constant": false,
      "inputs": [
        {
          "name": "amount",
          "type": "uint256"
        }
      ],
      "name": "withdrawStake",
      "outputs": [],
      "payable": true,
      "stateMutability": "payable",
      "type": "function"
    },
    {
      "constant": false,
      "inputs": [],
      "name": "getLatestPrice",
      "outputs": [
        {
          "name": "",
          "type": "uint80"
        }
      ],
      "payable": false,
      "stateMutability": "nonpayable",
      "type": "function"
    },
    {
      "constant": false,
      "inputs": [],
      "name": "withdraw",
      "outputs": [],
      "payable": false,
      "stateMutability": "nonpayable",
      "type": "function"
    }
  ],
  "bytecode": "0x608060405234801561001057600080fd5b506040516020806128bb8339810180604052602081101561003057600080fd5b810190808051906020019092919050505080600860006101000a81548173ffffffffffffffffffffffffffffffffffffffff021916908373ffffffffffffffffffffffffffffffffffffffff16021790555033600160006101000a81548173ffffffffffffffffffffffffffffffffffffffff021916908373ffffffffffffffffffffffffffffffffffffffff160217905550506127e8806100d36000396000f3fe6080604052600436106101355760003560e01c806373210fb1116100ab578063bfb231d21161006f578063bfb231d214610667578063c1d3ce7c146107d3578063cd2f071014610966578063cf73a1bc14610ac7578063d96a094a14610b1e578063ff5257eb14610b4c57610135565b806373210fb1146105265780637c3a00fd1461057d5780638e15f473146105a8578063964eec70146105eb578063b5a60d091461061657610135565b806327c6919d116100fd57806327c6919d146102d35780633ccfd60b1461030e5780634ba1d6aa1461032557806359626268146103d95780635f84f302146104455780637231a8761461048057610135565b80630103c92b1461013a57806308fff3e8146101a6578063178a8d07146102155780631f1d60611461024057806325d5971f146102a5575b600080fd5b34801561014657600080fd5b506101896004803603602081101561015d57600080fd5b81019080803573ffffffffffffffffffffffffffffffffffffffff169060200190929190505050610b9b565b604051808381526020018281526020019250505060405180910390f35b3480156101b257600080fd5b506101ff600480360360408110156101c957600080fd5b81019080803573ffffffffffffffffffffffffffffffffffffffff16906020019092919080359060200190929190505050610bbf565b6040518082815260200191505060405180910390f35b34801561022157600080fd5b5061022a610bed565b6040518082815260200191505060405180910390f35b34801561024c57600080fd5b5061028f6004803603602081101561026357600080fd5b81019080803573ffffffffffffffffffffffffffffffffffffffff169060200190929190505050610bf3565b6040518082815260200191505060405180910390f35b6102d1600480360360208110156102bb57600080fd5b8101908080359060200190929190505050610d4a565b005b3480156102df57600080fd5b5061030c600480360360208110156102f657600080fd5b81019080803590602001909291905050506111af565b005b34801561031a57600080fd5b5061032361127c565b005b34801561033157600080fd5b5061033a6113c1565b604051808060200180602001838103835285818151815260200191508051906020019060200280838360005b83811015610381578082015181840152602081019050610366565b50505050905001838103825284818151815260200191508051906020019060200280838360005b838110156103c35780820151818401526020810190506103a8565b5050505090500194505050505060405180910390f35b3480156103e557600080fd5b506103ee6114d0565b6040518080602001828103825283818151815260200191508051906020019060200280838360005b83811015610431578082015181840152602081019050610416565b505050509050019250505060405180910390f35b34801561045157600080fd5b5061047e6004803603602081101561046857600080fd5b8101908080359060200190929190505050611528565b005b34801561048c57600080fd5b506104cf600480360360208110156104a357600080fd5b81019080803573ffffffffffffffffffffffffffffffffffffffff1690602001909291905050506115f5565b6040518080602001828103825283818151815260200191508051906020019060200280838360005b838110156105125780820151818401526020810190506104f7565b505050509050019250505060405180910390f35b34801561053257600080fd5b5061053b61168c565b604051808273ffffffffffffffffffffffffffffffffffffffff1673ffffffffffffffffffffffffffffffffffffffff16815260200191505060405180910390f35b34801561058957600080fd5b506105926116b1565b6040518082815260200191505060405180910390f35b3480156105b457600080fd5b506105bd6116b7565b604051808269ffffffffffffffffffff1669ffffffffffffffffffff16815260200191505060405180910390f35b3480156105f757600080fd5b50610600611816565b6040518082815260200191505060405180910390f35b34801561062257600080fd5b506106656004803603602081101561063957600080fd5b81019080803573ffffffffffffffffffffffffffffffffffffffff169060200190929190505050611835565b005b34801561067357600080fd5b506106a06004803603602081101561068a57600080fd5b81019080803590602001909291905050506119c1565b60405180806020018781526020018673ffffffffffffffffffffffffffffffffffffffff1673ffffffffffffffffffffffffffffffffffffffff1681526020018060200185815260200184151515158152602001838103835289818151815260200191508051906020019080838360005b8381101561072c578082015181840152602081019050610711565b50505050905090810190601f1680156107595780820380516001836020036101000a031916815260200191505b50838103825286818151815260200191508051906020019080838360005b83811015610792578082015181840152602081019050610777565b50505050905090810190601f1680156107bf5780820380516001836020036101000a031916815260200191505b509850505050505050505060405180910390f35b3480156107df57600080fd5b50610964600480360360a08110156107f657600080fd5b810190808035906020019064010000000081111561081357600080fd5b82018360208201111561082557600080fd5b8035906020019184600183028401116401000000008311171561084757600080fd5b91908080601f016020809104026020016040519081016040528093929190818152602001838380828437600081840152601f19601f82011690508083019250505050505050919291929080359060200190929190803573ffffffffffffffffffffffffffffffffffffffff169060200190929190803590602001906401000000008111156108d457600080fd5b8201836020820111156108e657600080fd5b8035906020019184600183028401116401000000008311171561090857600080fd5b91908080601f016020809104026020016040519081016040528093929190818152602001838380828437600081840152601f19601f82011690508083019250505050505050919291929080359060200190929190505050611b67565b005b34801561097257600080fd5b5061099f6004803603602081101561098957600080fd5b8101908080359060200190929190505050611dcc565b604051808681526020018573ffffffffffffffffffffffffffffffffffffffff1673ffffffffffffffffffffffffffffffffffffffff1681526020018060200184815260200180602001838103835286818151815260200191508051906020019080838360005b83811015610a21578082015181840152602081019050610a06565b50505050905090810190601f168015610a4e5780820380516001836020036101000a031916815260200191505b50838103825284818151815260200191508051906020019080838360005b83811015610a87578082015181840152602081019050610a6c565b50505050905090810190601f168015610ab45780820380516001836020036101000a031916815260200191505b5097505050505050505060405180910390f35b348015610ad357600080fd5b50610adc611ff3565b604051808273ffffffffffffffffffffffffffffffffffffffff1673ffffffffffffffffffffffffffffffffffffffff16815260200191505060405180910390f35b610b4a60048036036020811015610b3457600080fd5b8101908080359060200190929190505050612019565b005b348015610b5857600080fd5b50610b8560048036036020811015610b6f57600080fd5b81019080803590602001909291905050506125c2565b6040518082815260200191505060405180910390f35b60076020528060005260406000206000915090508060000154908060010154905082565b60066020528160005260406000208181548110610bd857fe5b90600052602060002001600091509150505481565b60025481565b600080600760008473ffffffffffffffffffffffffffffffffffffffff1673ffffffffffffffffffffffffffffffffffffffff168152602001908152602001600020905060008060009054906101000a900473ffffffffffffffffffffffffffffffffffffffff1673ffffffffffffffffffffffffffffffffffffffff166370a08231856040518263ffffffff1660e01b8152600401808273ffffffffffffffffffffffffffffffffffffffff1673ffffffffffffffffffffffffffffffffffffffff16815260200191505060206040518083038186803b158015610cd757600080fd5b505afa158015610ceb573d6000803e3d6000fd5b505050506040513d6020811015610d0157600080fd5b810190808051906020019092919050505090506000606482600354603c8660000154420381610d2c57fe5b04020281610d3657fe5b048360010154019050809350505050919050565b600073ffffffffffffffffffffffffffffffffffffffff166000809054906101000a900473ffffffffffffffffffffffffffffffffffffffff1673ffffffffffffffffffffffffffffffffffffffff161415610e0e576040517f08c379a000000000000000000000000000000000000000000000000000000000815260040180806020018281038252601a8152602001807f506f696e7420636f6e7472616374206d7573742065786973742100000000000081525060200191505060405180910390fd5b60003073ffffffffffffffffffffffffffffffffffffffff1631905081811015610e83576040517f08c379a000000000000000000000000000000000000000000000000000000000815260040180806020018281038252602b81526020018061272a602b913960400191505060405180910390fd5b6000600760003373ffffffffffffffffffffffffffffffffffffffff1673ffffffffffffffffffffffffffffffffffffffff168152602001908152602001600020905060008060009054906101000a900473ffffffffffffffffffffffffffffffffffffffff1673ffffffffffffffffffffffffffffffffffffffff166370a08231336040518263ffffffff1660e01b8152600401808273ffffffffffffffffffffffffffffffffffffffff1673ffffffffffffffffffffffffffffffffffffffff16815260200191505060206040518083038186803b158015610f6657600080fd5b505afa158015610f7a573d6000803e3d6000fd5b505050506040513d6020811015610f9057600080fd5b810190808051906020019092919050505090506000606482600354603c8660000154420381610fbb57fe5b04020281610fc557fe5b04836001015401905084811015611027576040517f08c379a00000000000000000000000000000000000000000000000000000000081526004018080602001828103825260388152602001806127856038913960400191505060405180910390fd5b84810383600101819055504283600001819055506000809054906101000a900473ffffffffffffffffffffffffffffffffffffffff1673ffffffffffffffffffffffffffffffffffffffff16639c4d3fe033838886028161108457fe5b046040518363ffffffff1660e01b8152600401808373ffffffffffffffffffffffffffffffffffffffff1673ffffffffffffffffffffffffffffffffffffffff16815260200182815260200192505050602060405180830381600087803b1580156110ee57600080fd5b505af1158015611102573d6000803e3d6000fd5b505050506040513d602081101561111857600080fd5b8101908080519060200190929190505050503373ffffffffffffffffffffffffffffffffffffffff166108fc869081150290604051600060405180830381858888f19350505050158015611170573d6000803e3d6000fd5b507fff34585d7a2232a89ef664b8d4790f8fa9f92983c01c90d1903218e802042881856040518082815260200191505060405180910390a15050505050565b600160009054906101000a900473ffffffffffffffffffffffffffffffffffffffff1673ffffffffffffffffffffffffffffffffffffffff163373ffffffffffffffffffffffffffffffffffffffff1614611272576040517f08c379a000000000000000000000000000000000000000000000000000000000815260040180806020018281038252600f8152602001807f4d757374206265206d616e61676572000000000000000000000000000000000081525060200191505060405180910390fd5b8060028190555050565b600160009054906101000a900473ffffffffffffffffffffffffffffffffffffffff1673ffffffffffffffffffffffffffffffffffffffff163373ffffffffffffffffffffffffffffffffffffffff161461133f576040517f08c379a000000000000000000000000000000000000000000000000000000000815260040180806020018281038252600f8152602001807f4d757374206265206d616e61676572000000000000000000000000000000000081525060200191505060405180910390fd5b600160009054906101000a900473ffffffffffffffffffffffffffffffffffffffff1673ffffffffffffffffffffffffffffffffffffffff166108fc3073ffffffffffffffffffffffffffffffffffffffff16319081150290604051600060405180830381858888f193505050501580156113be573d6000803e3d6000fd5b50565b60608060606005805490506040519080825280602002602001820160405280156113fa5781602001602082028038833980820191505090505b50905060606005805490506040519080825280602002602001820160405280156114335781602001602082028038833980820191505090505b50905060008090505b6005805490508110156114c35760006005828154811061145857fe5b90600052602060002090600602019050806001015484838151811061147957fe5b6020026020010181815250508060050160009054906101000a900460ff168383815181106114a357fe5b60200260200101901515908115158152505050808060010191505061143c565b5081819350935050509091565b6060600480548060200260200160405190810160405280929190818152602001828054801561151e57602002820191906000526020600020905b81548152602001906001019080831161150a575b5050505050905090565b600160009054906101000a900473ffffffffffffffffffffffffffffffffffffffff1673ffffffffffffffffffffffffffffffffffffffff163373ffffffffffffffffffffffffffffffffffffffff16146115eb576040517f08c379a000000000000000000000000000000000000000000000000000000000815260040180806020018281038252600f8152602001807f4d757374206265206d616e61676572000000000000000000000000000000000081525060200191505060405180910390fd5b8060038190555050565b6060600660008373ffffffffffffffffffffffffffffffffffffffff1673ffffffffffffffffffffffffffffffffffffffff16815260200190815260200160002080548060200260200160405190810160405280929190818152602001828054801561168057602002820191906000526020600020905b81548152602001906001019080831161166c575b50505050509050919050565b6000809054906101000a900473ffffffffffffffffffffffffffffffffffffffff1681565b60035481565b600080600080600080600860009054906101000a900473ffffffffffffffffffffffffffffffffffffffff1673ffffffffffffffffffffffffffffffffffffffff1663feaf968c6040518163ffffffff1660e01b815260040160a06040518083038186803b15801561172857600080fd5b505afa15801561173c573d6000803e3d6000fd5b505050506040513d60a081101561175257600080fd5b810190808051906020019092919080519060200190929190805190602001909291908051906020019092919080519060200190929190505050945094509450945094506000821161180b576040517f08c379a00000000000000000000000000000000000000000000000000000000081526004018080602001828103825260128152602001807f526f756e64206e6f7420636f6d706c657465000000000000000000000000000081525060200191505060405180910390fd5b849550505050505090565b60003073ffffffffffffffffffffffffffffffffffffffff1631905090565b600160009054906101000a900473ffffffffffffffffffffffffffffffffffffffff1673ffffffffffffffffffffffffffffffffffffffff163373ffffffffffffffffffffffffffffffffffffffff16146118f8576040517f08c379a000000000000000000000000000000000000000000000000000000000815260040180806020018281038252600f8152602001807f4d757374206265206d616e61676572000000000000000000000000000000000081525060200191505060405180910390fd5b600073ffffffffffffffffffffffffffffffffffffffff168173ffffffffffffffffffffffffffffffffffffffff16141561197e576040517f08c379a00000000000000000000000000000000000000000000000000000000081526004018080602001828103825260308152602001806127556030913960400191505060405180910390fd5b806000806101000a81548173ffffffffffffffffffffffffffffffffffffffff021916908373ffffffffffffffffffffffffffffffffffffffff16021790555050565b600581815481106119ce57fe5b9060005260206000209060060201600091509050806000018054600181600116156101000203166002900480601f016020809104026020016040519081016040528092919081815260200182805460018160011615610100020316600290048015611a7a5780601f10611a4f57610100808354040283529160200191611a7a565b820191906000526020600020905b815481529060010190602001808311611a5d57829003601f168201915b5050505050908060010154908060020160009054906101000a900473ffffffffffffffffffffffffffffffffffffffff1690806003018054600181600116156101000203166002900480601f016020809104026020016040519081016040528092919081815260200182805460018160011615610100020316600290048015611b445780601f10611b1957610100808354040283529160200191611b44565b820191906000526020600020905b815481529060010190602001808311611b2757829003601f168201915b5050505050908060040154908060050160009054906101000a900460ff16905086565b80600011158015611b79575060048111155b611beb576040517f08c379a00000000000000000000000000000000000000000000000000000000081526004018080602001828103825260188152602001807f4974656d2074797065206d75737420696e2030202d3e2034000000000000000081525060200191505060405180910390fd5b60056040518060c001604052808781526020018681526020018573ffffffffffffffffffffffffffffffffffffffff16815260200184815260200183815260200160011515815250908060018154018082558091505090600182039060005260206000209060060201600090919290919091506000820151816000019080519060200190611c7a929190612684565b506020820151816001015560408201518160020160006101000a81548173ffffffffffffffffffffffffffffffffffffffff021916908373ffffffffffffffffffffffffffffffffffffffff1602179055506060820151816003019080519060200190611ce8929190612684565b506080820151816004015560a08201518160050160006101000a81548160ff021916908315150217905550505050600460016005805490500390806001815401808255809150509060018203906000526020600020016000909192909190915055507f1cdb5ee3c47e1a706ac452b89698e5e3f2ff4f835ca72dde8936d0f4fcf37d816001600580549050038585604051808481526020018381526020018273ffffffffffffffffffffffffffffffffffffffff1673ffffffffffffffffffffffffffffffffffffffff168152602001935050505060405180910390a15050505050565b600080606060006060856005805490508110611e50576040517f08c379a00000000000000000000000000000000000000000000000000000000081526004018080602001828103825260128152602001807f4974656d206d757374206265206578697374000000000000000000000000000081525060200191505060405180910390fd5b600060058881548110611e5f57fe5b9060005260206000209060060201905080600101548160020160009054906101000a900473ffffffffffffffffffffffffffffffffffffffff1682600301836004015484600001828054600181600116156101000203166002900480601f016020809104026020016040519081016040528092919081815260200182805460018160011615610100020316600290048015611f3b5780601f10611f1057610100808354040283529160200191611f3b565b820191906000526020600020905b815481529060010190602001808311611f1e57829003601f168201915b50505050509250808054600181600116156101000203166002900480601f016020809104026020016040519081016040528092919081815260200182805460018160011615610100020316600290048015611fd75780601f10611fac57610100808354040283529160200191611fd7565b820191906000526020600020905b815481529060010190602001808311611fba57829003601f168201915b5050505050905096509650965096509650505091939590929450565b600160009054906101000a900473ffffffffffffffffffffffffffffffffffffffff1681565b806005805490508110612094576040517f08c379a00000000000000000000000000000000000000000000000000000000081526004018080602001828103825260128152602001807f4974656d206d757374206265206578697374000000000000000000000000000081525060200191505060405180910390fd5b81600581815481106120a257fe5b906000526020600020906006020160050160009054906101000a900460ff16612133576040517f08c379a00000000000000000000000000000000000000000000000000000000081526004018080602001828103825260148152602001807f4974656d206d757374206265206f6e2073616c6500000000000000000000000081525060200191505060405180910390fd5b600073ffffffffffffffffffffffffffffffffffffffff166000809054906101000a900473ffffffffffffffffffffffffffffffffffffffff1673ffffffffffffffffffffffffffffffffffffffff1614156121f7576040517f08c379a000000000000000000000000000000000000000000000000000000000815260040180806020018281038252601a8152602001807f506f696e7420636f6e7472616374206d7573742065786973742100000000000081525060200191505060405180910390fd5b60006005848154811061220657fe5b906000526020600020906006020190508060010154341015612290576040517f08c379a00000000000000000000000000000000000000000000000000000000081526004018080602001828103825260168152602001807f4d757374206861766520656e6f756768206d6f6e65790000000000000000000081525060200191505060405180910390fd5b60008160050160006101000a81548160ff021916908315150217905550600660003373ffffffffffffffffffffffffffffffffffffffff1673ffffffffffffffffffffffffffffffffffffffff16815260200190815260200160002084908060018154018082558091505090600182039060005260206000200160009091929091909150555061231f846125e3565b6000600760003373ffffffffffffffffffffffffffffffffffffffff1673ffffffffffffffffffffffffffffffffffffffff168152602001908152602001600020905060008060009054906101000a900473ffffffffffffffffffffffffffffffffffffffff1673ffffffffffffffffffffffffffffffffffffffff166370a08231336040518263ffffffff1660e01b8152600401808273ffffffffffffffffffffffffffffffffffffffff1673ffffffffffffffffffffffffffffffffffffffff16815260200191505060206040518083038186803b15801561240257600080fd5b505afa158015612416573d6000803e3d6000fd5b505050506040513d602081101561242c57600080fd5b81019080805190602001909291905050509050606481600354603c856000015442038161245557fe5b0402028161245f57fe5b04826001016000828254019250508190555042826000018190555060006103e88460010154600254028161248f57fe5b0490506000809054906101000a900473ffffffffffffffffffffffffffffffffffffffff1673ffffffffffffffffffffffffffffffffffffffff166340c10f1933836040518363ffffffff1660e01b8152600401808373ffffffffffffffffffffffffffffffffffffffff1673ffffffffffffffffffffffffffffffffffffffff16815260200182815260200192505050602060405180830381600087803b15801561253a57600080fd5b505af115801561254e573d6000803e3d6000fd5b505050506040513d602081101561256457600080fd5b8101908080519060200190929190505050507f76911b5d8081a7d290dd15cdb0e39e9513ac7e8d1cce3275a7cf1380889abacc878560010154604051808381526020018281526020019250505060405180910390a150505050505050565b600481815481106125cf57fe5b906000526020600020016000915090505481565b60005b60048054905081101561268057816004828154811061260157fe5b906000526020600020015414156126735760046001600480549050038154811061262757fe5b90600052602060002001546004828154811061263f57fe5b9060005260206000200181905550600480548061265857fe5b60019003818190600052602060002001600090559055612680565b80806001019150506125e6565b5050565b828054600181600116156101000203166002900490600052602060002090601f016020900481019282601f106126c557805160ff19168380011785556126f3565b828001600101855582156126f3579182015b828111156126f25782518255916020019190600101906126d7565b5b5090506127009190612704565b5090565b61272691905b8082111561272257600081600090555060010161270a565b5090565b9056fe4d61726b65742062616c616e63652068617665206e6f7420656e6f75676820746f20776974686472617721506f696e7420636f6e74726163742061646472657373206d757374206e6f74206265206e756c6c2061646472657373215769746864726177206d757374206265206c657373206f7220657175616c20616d6f756e74206f66206d6f6e657920696e207374616b6521a165627a7a72305820fba06cf1abe63314ee4b1234db6dc49d3e08b4ab26818815623c68e74298e9510029",
  "source": "pragma solidity ^0.5.0;\nimport \"./Point.sol\";\nimport \"@chainlink/contracts/src/v0.5/interfaces/AggregatorV3Interface.sol\";\n\ncontract Market {\n    struct Item {\n        string name;\n        uint256 price;\n        address owner;\n        string imageUrl;\n        uint256 itemType;\n        bool isSelling;\n    }\n\n    /**\n     * timeStart: Timeline to calculate the next interest amount\n     * currentFund: Current fund without taking next interest (convert to ONE)\n     */\n\n    struct Balance {\n        uint256 timeStart;\n        uint256 currentFund;\n    }\n\n    Point public pointContract;\n    address payable public managerAddress;\n    uint256 public buyBackRate;\n    uint256 public interestRate;\n\n    uint256[] public sellingItems;\n    Item[] public items;\n    mapping(address => uint256[]) public buyerItems;\n    mapping(address => Balance) public userBalance;\n\n    /** Price of ONE\n     */\n    AggregatorV3Interface internal priceFeed;\n\n    //EVENT\n\n    /** emitted when a new item is sell in Market\n     */\n    event Sell(uint256 id, uint256 price, address owner);\n    event Buy(uint256 id, uint256 price);\n    event WithdrawStake(uint256 amount);\n\n    modifier onlyManager() {\n        require(msg.sender == managerAddress, \"Must be manager\");\n        _;\n    }\n\n    //MODIFIER\n    modifier itemInList(uint256 _id) {\n        require(_id < items.length, \"Item must be exist\");\n        _;\n    }\n\n    modifier itemOnSale(uint256 _id) {\n        require(items[_id].isSelling, \"Item must be on sale\");\n        _;\n    }\n\n    modifier pointContractMustExist() {\n        require(\n            address(pointContract) != address(0),\n            \"Point contract must exist!\"\n        );\n        _;\n    }\n\n    //FUNCTION\n    constructor(address oracle) public {\n        priceFeed = AggregatorV3Interface(oracle);\n        managerAddress = msg.sender;\n    }\n\n    function setPointContract(address _pointContractAddress)\n        public\n        onlyManager\n    {\n        require(\n            _pointContractAddress != address(0),\n            \"Point contract address must not be null address!\"\n        );\n\n        pointContract = Point(_pointContractAddress);\n    }\n\n    function setBuyBackRate(uint256 _buyBackRate) public onlyManager {\n        buyBackRate = _buyBackRate;\n    }\n\n    function setInterestRate(uint256 _interestRate) public onlyManager {\n        interestRate = _interestRate;\n    }\n\n    function getAllItems()\n        public\n        view\n        returns (uint256[] memory, bool[] memory)\n    {\n        uint256[] memory price = new uint256[](items.length);\n        bool[] memory isSelling = new bool[](items.length);\n\n        for (uint256 i = 0; i < items.length; i++) {\n            Item storage item = items[i];\n            price[i] = item.price;\n            isSelling[i] = item.isSelling;\n        }\n\n        return (price, isSelling);\n    }\n\n    function getSellingItems() public view returns (uint256[] memory) {\n        return sellingItems;\n    }\n\n    function getItemById(uint256 _id)\n        public\n        view\n        itemInList(_id)\n        returns (\n            uint256,\n            address,\n            string memory,\n            uint256,\n            string memory\n        )\n    {\n        Item storage item = items[_id];\n        return (\n            item.price,\n            item.owner,\n            item.imageUrl,\n            item.itemType,\n            item.name\n        );\n    }\n\n    function itemsOf(address _owner) public view returns (uint256[] memory) {\n        return buyerItems[_owner];\n    }\n\n    function getMarketBalance() public view returns (uint256) {\n        return address(this).balance;\n    }\n\n    function sell(\n        string memory _name,\n        uint256 _price,\n        address _owner,\n        string memory _imageUrl,\n        uint256 _itemType\n    ) public {\n        require(0 <= _itemType && _itemType <= 4, \"Item type must in 0 -> 4\");\n\n        items.push(Item(_name, _price, _owner, _imageUrl, _itemType, true));\n        sellingItems.push(items.length - 1);\n        emit Sell(items.length - 1, _price, _owner);\n    }\n\n    function buy(uint256 _id)\n        public\n        payable\n        itemInList(_id)\n        itemOnSale(_id)\n        pointContractMustExist\n    {\n        Item storage item = items[_id];\n        require(msg.value >= item.price, \"Must have enough money\");\n        item.isSelling = false;\n        buyerItems[msg.sender].push(_id);\n        removeFromSellingItem(_id);\n\n        // update currentFund before adding point\n        Balance storage balance = userBalance[msg.sender];\n        uint256 currentPoint = pointContract.balanceOf(msg.sender);\n        balance.currentFund +=\n            (((block.timestamp - balance.timeStart) / (1 minutes)) *\n                interestRate *\n                currentPoint) /\n            100;\n        balance.timeStart = block.timestamp;\n\n        // calculate and back point\n        uint256 pointAmount = (buyBackRate * item.price) / 1000;\n        pointContract.mint(msg.sender, pointAmount);\n\n        emit Buy(_id, item.price);\n    }\n\n    function getWithdrawableStake(address account)\n        public\n        view\n        returns (uint256)\n    {\n        Balance storage balance = userBalance[account];\n        uint256 currentPoint = pointContract.balanceOf(account);\n\n        uint256 withdrawableStake = balance.currentFund +\n            (((block.timestamp - balance.timeStart) / (1 minutes)) *\n                interestRate *\n                currentPoint) /\n            100;\n        return withdrawableStake;\n    }\n\n    function withdrawStake(uint256 amount)\n        public\n        payable\n        pointContractMustExist\n    {\n        uint256 marketBalance = address(this).balance;\n        require(\n            marketBalance >= amount,\n            \"Market balance have not enough to withdraw!\"\n        );\n\n        Balance storage balance = userBalance[msg.sender];\n        uint256 currentPoint = pointContract.balanceOf(msg.sender);\n\n        uint256 withdrawableStake = balance.currentFund +\n            (((block.timestamp - balance.timeStart) / (1 minutes)) *\n                interestRate *\n                currentPoint) /\n            100;\n\n        require(\n            withdrawableStake >= amount,\n            \"Withdraw must be less or equal amount of money in stake!\"\n        );\n\n        balance.currentFund = withdrawableStake - amount;\n        balance.timeStart = block.timestamp;\n\n        pointContract.burnSun(\n            msg.sender,\n            (currentPoint * amount) / withdrawableStake\n        );\n\n        msg.sender.transfer(amount);\n        emit WithdrawStake(amount);\n    }\n\n    /** Remove item in sellingItems when it was bought\n     */\n    function removeFromSellingItem(uint256 _id) internal {\n        for (uint256 i; i < sellingItems.length; i++) {\n            if (sellingItems[i] == _id) {\n                sellingItems[i] = sellingItems[sellingItems.length - 1];\n                sellingItems.pop();\n                break;\n            }\n        }\n    }\n\n    /** Feed price of ONE/USD\n     */\n    function getLatestPrice() public returns (uint80) {\n        (\n            uint80 roundID,\n            int256 price,\n            uint256 startedAt,\n            uint256 timeStamp,\n            uint80 answeredInRound\n        ) = priceFeed.latestRoundData();\n        // If the round is not complete yet, timestamp is 0\n        require(timeStamp > 0, \"Round not complete\");\n        return uint80(roundID);\n    }\n\n    /** Function withdraw ONE to account Manager\n     */\n    function withdraw() public onlyManager {\n        managerAddress.transfer(address(this).balance);\n    }\n}\n",
  "sourcePath": "/home/ngo.van.nghia/Documents/POC/token-back/contract/contracts/Market.sol",
  "compiler": {
    "name": "solc",
    "version": "0.5.8+commit.23d335f2.Emscripten.clang"
  },
  "schemaVersion": "3.2.4",
  "updatedAt": "2020-09-17T07:55:35.698Z",
  "networkType": "ethereum",
  "devdoc": {
    "methods": {}
  },
  "userdoc": {
    "methods": {
      "getLatestPrice()": {
        "notice": "Feed price of ONE/USD"
      },
      "withdraw()": {
        "notice": "Function withdraw ONE to account Manager"
      }
    }
  }
}