{
  "contractName": "Market",
  "abi": [
    {
      "constant": true,
      "inputs": [
        {
          "name": "",
          "type": "address"
        }
      ],
      "name": "userBalance",
      "outputs": [
        {
          "name": "timeStart",
          "type": "uint256"
        },
        {
          "name": "currentFund",
          "type": "uint256"
        }
      ],
      "payable": false,
      "stateMutability": "view",
      "type": "function"
    },
    {
      "constant": true,
      "inputs": [
        {
          "name": "",
          "type": "address"
        },
        {
          "name": "",
          "type": "uint256"
        }
      ],
      "name": "buyerItems",
      "outputs": [
        {
          "name": "",
          "type": "uint256"
        }
      ],
      "payable": false,
      "stateMutability": "view",
      "type": "function"
    },
    {
      "constant": true,
      "inputs": [],
      "name": "buyBackRate",
      "outputs": [
        {
          "name": "",
          "type": "uint256"
        }
      ],
      "payable": false,
      "stateMutability": "view",
      "type": "function"
    },
    {
      "constant": true,
      "inputs": [],
      "name": "pointContract",
      "outputs": [
        {
          "name": "",
          "type": "address"
        }
      ],
      "payable": false,
      "stateMutability": "view",
      "type": "function"
    },
    {
      "constant": true,
      "inputs": [],
      "name": "interestRate",
      "outputs": [
        {
          "name": "",
          "type": "uint256"
        }
      ],
      "payable": false,
      "stateMutability": "view",
      "type": "function"
    },
    {
      "constant": true,
      "inputs": [
        {
          "name": "",
          "type": "uint256"
        }
      ],
      "name": "items",
      "outputs": [
        {
          "name": "price",
          "type": "uint256"
        },
        {
          "name": "owner",
          "type": "address"
        },
        {
          "name": "imageUrl",
          "type": "string"
        },
        {
          "name": "itemType",
          "type": "uint256"
        },
        {
          "name": "isSelling",
          "type": "bool"
        }
      ],
      "payable": false,
      "stateMutability": "view",
      "type": "function"
    },
    {
      "constant": true,
      "inputs": [],
      "name": "managerAddress",
      "outputs": [
        {
          "name": "",
          "type": "address"
        }
      ],
      "payable": false,
      "stateMutability": "view",
      "type": "function"
    },
    {
      "constant": true,
      "inputs": [
        {
          "name": "",
          "type": "uint256"
        }
      ],
      "name": "sellingItems",
      "outputs": [
        {
          "name": "",
          "type": "uint256"
        }
      ],
      "payable": false,
      "stateMutability": "view",
      "type": "function"
    },
    {
      "inputs": [],
      "payable": false,
      "stateMutability": "nonpayable",
      "type": "constructor"
    },
    {
      "anonymous": false,
      "inputs": [
        {
          "indexed": false,
          "name": "id",
          "type": "uint256"
        },
        {
          "indexed": false,
          "name": "price",
          "type": "uint256"
        },
        {
          "indexed": false,
          "name": "owner",
          "type": "address"
        }
      ],
      "name": "Sell",
      "type": "event"
    },
    {
      "anonymous": false,
      "inputs": [
        {
          "indexed": false,
          "name": "id",
          "type": "uint256"
        },
        {
          "indexed": false,
          "name": "price",
          "type": "uint256"
        }
      ],
      "name": "Buy",
      "type": "event"
    },
    {
      "anonymous": false,
      "inputs": [
        {
          "indexed": false,
          "name": "amount",
          "type": "uint256"
        }
      ],
      "name": "WithdrawStake",
      "type": "event"
    },
    {
      "constant": false,
      "inputs": [
        {
          "name": "_pointContractAddress",
          "type": "address"
        }
      ],
      "name": "setPointContract",
      "outputs": [],
      "payable": false,
      "stateMutability": "nonpayable",
      "type": "function"
    },
    {
      "constant": false,
      "inputs": [
        {
          "name": "_buyBackRate",
          "type": "uint256"
        }
      ],
      "name": "setBuyBackRate",
      "outputs": [],
      "payable": false,
      "stateMutability": "nonpayable",
      "type": "function"
    },
    {
      "constant": false,
      "inputs": [
        {
          "name": "_interestRate",
          "type": "uint256"
        }
      ],
      "name": "setInterestRate",
      "outputs": [],
      "payable": false,
      "stateMutability": "nonpayable",
      "type": "function"
    },
    {
      "constant": true,
      "inputs": [],
      "name": "getAllItems",
      "outputs": [
        {
          "name": "",
          "type": "uint256[]"
        },
        {
          "name": "",
          "type": "bool[]"
        }
      ],
      "payable": false,
      "stateMutability": "view",
      "type": "function"
    },
    {
      "constant": true,
      "inputs": [],
      "name": "getSellingItems",
      "outputs": [
        {
          "name": "",
          "type": "uint256[]"
        }
      ],
      "payable": false,
      "stateMutability": "view",
      "type": "function"
    },
    {
      "constant": true,
      "inputs": [
        {
          "name": "_id",
          "type": "uint256"
        }
      ],
      "name": "getItemById",
      "outputs": [
        {
          "name": "",
          "type": "uint256"
        },
        {
          "name": "",
          "type": "address"
        },
        {
          "name": "",
          "type": "string"
        },
        {
          "name": "",
          "type": "uint256"
        }
      ],
      "payable": false,
      "stateMutability": "view",
      "type": "function"
    },
    {
      "constant": true,
      "inputs": [
        {
          "name": "_owner",
          "type": "address"
        }
      ],
      "name": "itemsOf",
      "outputs": [
        {
          "name": "",
          "type": "uint256[]"
        }
      ],
      "payable": false,
      "stateMutability": "view",
      "type": "function"
    },
    {
      "constant": true,
      "inputs": [],
      "name": "getMarketBalance",
      "outputs": [
        {
          "name": "",
          "type": "uint256"
        }
      ],
      "payable": false,
      "stateMutability": "view",
      "type": "function"
    },
    {
      "constant": false,
      "inputs": [
        {
          "name": "_price",
          "type": "uint256"
        },
        {
          "name": "_owner",
          "type": "address"
        },
        {
          "name": "_imageUrl",
          "type": "string"
        },
        {
          "name": "_itemType",
          "type": "uint256"
        }
      ],
      "name": "sell",
      "outputs": [],
      "payable": false,
      "stateMutability": "nonpayable",
      "type": "function"
    },
    {
      "constant": false,
      "inputs": [
        {
          "name": "_id",
          "type": "uint256"
        }
      ],
      "name": "buy",
      "outputs": [],
      "payable": true,
      "stateMutability": "payable",
      "type": "function"
    },
    {
      "constant": true,
      "inputs": [
        {
          "name": "account",
          "type": "address"
        }
      ],
      "name": "getWithdrawableStake",
      "outputs": [
        {
          "name": "",
          "type": "uint256"
        }
      ],
      "payable": false,
      "stateMutability": "view",
      "type": "function"
    },
    {
      "constant": false,
      "inputs": [
        {
          "name": "amount",
          "type": "uint256"
        }
      ],
      "name": "withdrawStake",
      "outputs": [],
      "payable": true,
      "stateMutability": "payable",
      "type": "function"
    }
  ],
  "bytecode": "0x608060405234801561001057600080fd5b5033600160006101000a81548173ffffffffffffffffffffffffffffffffffffffff021916908373ffffffffffffffffffffffffffffffffffffffff160217905550612203806100616000396000f3fe60806040526004361061011f5760003560e01c806373210fb1116100a0578063bfb231d211610064578063bfb231d2146106f3578063cd2f0710146107f3578063cf73a1bc146108e8578063d96a094a1461093f578063ff5257eb1461096d5761011f565b806373210fb1146104f957806376c95df8146105505780637c3a00fd1461064c578063964eec7014610677578063b5a60d09146106a25761011f565b806327c6919d116100e757806327c6919d146102bd5780634ba1d6aa146102f857806359626268146103ac5780635f84f302146104185780637231a876146104535761011f565b80630103c92b1461012457806308fff3e814610190578063178a8d07146101ff5780631f1d60611461022a57806325d5971f1461028f575b600080fd5b34801561013057600080fd5b506101736004803603602081101561014757600080fd5b81019080803573ffffffffffffffffffffffffffffffffffffffff1690602001909291905050506109bc565b604051808381526020018281526020019250505060405180910390f35b34801561019c57600080fd5b506101e9600480360360408110156101b357600080fd5b81019080803573ffffffffffffffffffffffffffffffffffffffff169060200190929190803590602001909291905050506109e0565b6040518082815260200191505060405180910390f35b34801561020b57600080fd5b50610214610a0e565b6040518082815260200191505060405180910390f35b34801561023657600080fd5b506102796004803603602081101561024d57600080fd5b81019080803573ffffffffffffffffffffffffffffffffffffffff169060200190929190505050610a14565b6040518082815260200191505060405180910390f35b6102bb600480360360208110156102a557600080fd5b8101908080359060200190929190505050610b6d565b005b3480156102c957600080fd5b506102f6600480360360208110156102e057600080fd5b8101908080359060200190929190505050610fd4565b005b34801561030457600080fd5b5061030d6110a1565b604051808060200180602001838103835285818151815260200191508051906020019060200280838360005b83811015610354578082015181840152602081019050610339565b50505050905001838103825284818151815260200191508051906020019060200280838360005b8381101561039657808201518184015260208101905061037b565b5050505090500194505050505060405180910390f35b3480156103b857600080fd5b506103c16111b0565b6040518080602001828103825283818151815260200191508051906020019060200280838360005b838110156104045780820151818401526020810190506103e9565b505050509050019250505060405180910390f35b34801561042457600080fd5b506104516004803603602081101561043b57600080fd5b8101908080359060200190929190505050611208565b005b34801561045f57600080fd5b506104a26004803603602081101561047657600080fd5b81019080803573ffffffffffffffffffffffffffffffffffffffff1690602001909291905050506112d5565b6040518080602001828103825283818151815260200191508051906020019060200280838360005b838110156104e55780820151818401526020810190506104ca565b505050509050019250505060405180910390f35b34801561050557600080fd5b5061050e61136c565b604051808273ffffffffffffffffffffffffffffffffffffffff1673ffffffffffffffffffffffffffffffffffffffff16815260200191505060405180910390f35b34801561055c57600080fd5b5061064a6004803603608081101561057357600080fd5b8101908080359060200190929190803573ffffffffffffffffffffffffffffffffffffffff169060200190929190803590602001906401000000008111156105ba57600080fd5b8201836020820111156105cc57600080fd5b803590602001918460018302840111640100000000831117156105ee57600080fd5b91908080601f016020809104026020016040519081016040528093929190818152602001838380828437600081840152601f19601f82011690508083019250505050505050919291929080359060200190929190505050611391565b005b34801561065857600080fd5b506106616115d2565b6040518082815260200191505060405180910390f35b34801561068357600080fd5b5061068c6115d8565b6040518082815260200191505060405180910390f35b3480156106ae57600080fd5b506106f1600480360360208110156106c557600080fd5b81019080803573ffffffffffffffffffffffffffffffffffffffff1690602001909291905050506115f7565b005b3480156106ff57600080fd5b5061072c6004803603602081101561071657600080fd5b8101908080359060200190929190505050611783565b604051808681526020018573ffffffffffffffffffffffffffffffffffffffff1673ffffffffffffffffffffffffffffffffffffffff1681526020018060200184815260200183151515158152602001828103825285818151815260200191508051906020019080838360005b838110156107b4578082015181840152602081019050610799565b50505050905090810190601f1680156107e15780820380516001836020036101000a031916815260200191505b50965050505050505060405180910390f35b3480156107ff57600080fd5b5061082c6004803603602081101561081657600080fd5b810190808035906020019092919050505061188b565b604051808581526020018473ffffffffffffffffffffffffffffffffffffffff1673ffffffffffffffffffffffffffffffffffffffff16815260200180602001838152602001828103825284818151815260200191508051906020019080838360005b838110156108aa57808201518184015260208101905061088f565b50505050905090810190601f1680156108d75780820380516001836020036101000a031916815260200191505b509550505050505060405180910390f35b3480156108f457600080fd5b506108fd611a0c565b604051808273ffffffffffffffffffffffffffffffffffffffff1673ffffffffffffffffffffffffffffffffffffffff16815260200191505060405180910390f35b61096b6004803603602081101561095557600080fd5b8101908080359060200190929190505050611a32565b005b34801561097957600080fd5b506109a66004803603602081101561099057600080fd5b8101908080359060200190929190505050611fdd565b6040518082815260200191505060405180910390f35b60076020528060005260406000206000915090508060000154908060010154905082565b600660205281600052604060002081815481106109f957fe5b90600052602060002001600091509150505481565b60025481565b600080600760008473ffffffffffffffffffffffffffffffffffffffff1673ffffffffffffffffffffffffffffffffffffffff168152602001908152602001600020905060008060009054906101000a900473ffffffffffffffffffffffffffffffffffffffff1673ffffffffffffffffffffffffffffffffffffffff166370a08231856040518263ffffffff1660e01b8152600401808273ffffffffffffffffffffffffffffffffffffffff1673ffffffffffffffffffffffffffffffffffffffff16815260200191505060206040518083038186803b158015610af857600080fd5b505afa158015610b0c573d6000803e3d6000fd5b505050506040513d6020811015610b2257600080fd5b810190808051906020019092919050505090506000606482600354620151808660000154420381610b4f57fe5b04020281610b5957fe5b048360010154019050809350505050919050565b600073ffffffffffffffffffffffffffffffffffffffff166000809054906101000a900473ffffffffffffffffffffffffffffffffffffffff1673ffffffffffffffffffffffffffffffffffffffff161415610c31576040517f08c379a000000000000000000000000000000000000000000000000000000000815260040180806020018281038252601a8152602001807f506f696e7420636f6e7472616374206d7573742065786973742100000000000081525060200191505060405180910390fd5b60003073ffffffffffffffffffffffffffffffffffffffff1631905081811015610ca6576040517f08c379a000000000000000000000000000000000000000000000000000000000815260040180806020018281038252602b815260200180612145602b913960400191505060405180910390fd5b6000600760003373ffffffffffffffffffffffffffffffffffffffff1673ffffffffffffffffffffffffffffffffffffffff168152602001908152602001600020905060008060009054906101000a900473ffffffffffffffffffffffffffffffffffffffff1673ffffffffffffffffffffffffffffffffffffffff166370a08231336040518263ffffffff1660e01b8152600401808273ffffffffffffffffffffffffffffffffffffffff1673ffffffffffffffffffffffffffffffffffffffff16815260200191505060206040518083038186803b158015610d8957600080fd5b505afa158015610d9d573d6000803e3d6000fd5b505050506040513d6020811015610db357600080fd5b810190808051906020019092919050505090506000606482600354620151808660000154420381610de057fe5b04020281610dea57fe5b04836001015401905084811015610e4c576040517f08c379a00000000000000000000000000000000000000000000000000000000081526004018080602001828103825260388152602001806121a06038913960400191505060405180910390fd5b84810383600101819055504283600001819055506000809054906101000a900473ffffffffffffffffffffffffffffffffffffffff1673ffffffffffffffffffffffffffffffffffffffff16639c4d3fe0338388860281610ea957fe5b046040518363ffffffff1660e01b8152600401808373ffffffffffffffffffffffffffffffffffffffff1673ffffffffffffffffffffffffffffffffffffffff16815260200182815260200192505050602060405180830381600087803b158015610f1357600080fd5b505af1158015610f27573d6000803e3d6000fd5b505050506040513d6020811015610f3d57600080fd5b8101908080519060200190929190505050503373ffffffffffffffffffffffffffffffffffffffff166108fc869081150290604051600060405180830381858888f19350505050158015610f95573d6000803e3d6000fd5b507fff34585d7a2232a89ef664b8d4790f8fa9f92983c01c90d1903218e802042881856040518082815260200191505060405180910390a15050505050565b600160009054906101000a900473ffffffffffffffffffffffffffffffffffffffff1673ffffffffffffffffffffffffffffffffffffffff163373ffffffffffffffffffffffffffffffffffffffff1614611097576040517f08c379a000000000000000000000000000000000000000000000000000000000815260040180806020018281038252600f8152602001807f4d757374206265206d616e61676572000000000000000000000000000000000081525060200191505060405180910390fd5b8060028190555050565b60608060606005805490506040519080825280602002602001820160405280156110da5781602001602082028038833980820191505090505b50905060606005805490506040519080825280602002602001820160405280156111135781602001602082028038833980820191505090505b50905060008090505b6005805490508110156111a35760006005828154811061113857fe5b90600052602060002090600502019050806000015484838151811061115957fe5b6020026020010181815250508060040160009054906101000a900460ff1683838151811061118357fe5b60200260200101901515908115158152505050808060010191505061111c565b5081819350935050509091565b606060048054806020026020016040519081016040528092919081815260200182805480156111fe57602002820191906000526020600020905b8154815260200190600101908083116111ea575b5050505050905090565b600160009054906101000a900473ffffffffffffffffffffffffffffffffffffffff1673ffffffffffffffffffffffffffffffffffffffff163373ffffffffffffffffffffffffffffffffffffffff16146112cb576040517f08c379a000000000000000000000000000000000000000000000000000000000815260040180806020018281038252600f8152602001807f4d757374206265206d616e61676572000000000000000000000000000000000081525060200191505060405180910390fd5b8060038190555050565b6060600660008373ffffffffffffffffffffffffffffffffffffffff1673ffffffffffffffffffffffffffffffffffffffff16815260200190815260200160002080548060200260200160405190810160405280929190818152602001828054801561136057602002820191906000526020600020905b81548152602001906001019080831161134c575b50505050509050919050565b6000809054906101000a900473ffffffffffffffffffffffffffffffffffffffff1681565b806001111580156113a3575060058111155b611415576040517f08c379a00000000000000000000000000000000000000000000000000000000081526004018080602001828103825260188152602001807f4974656d2074797065206d75737420696e2031202d3e2035000000000000000081525060200191505060405180910390fd5b60056040518060a001604052808681526020018573ffffffffffffffffffffffffffffffffffffffff16815260200184815260200183815260200160011515815250908060018154018082558091505090600182039060005260206000209060050201600090919290919091506000820151816000015560208201518160010160006101000a81548173ffffffffffffffffffffffffffffffffffffffff021916908373ffffffffffffffffffffffffffffffffffffffff16021790555060408201518160020190805190602001906114ef92919061209f565b506060820151816003015560808201518160040160006101000a81548160ff021916908315150217905550505050600460016005805490500390806001815401808255809150509060018203906000526020600020016000909192909190915055507f1cdb5ee3c47e1a706ac452b89698e5e3f2ff4f835ca72dde8936d0f4fcf37d816001600580549050038585604051808481526020018381526020018273ffffffffffffffffffffffffffffffffffffffff1673ffffffffffffffffffffffffffffffffffffffff168152602001935050505060405180910390a150505050565b60035481565b60003073ffffffffffffffffffffffffffffffffffffffff1631905090565b600160009054906101000a900473ffffffffffffffffffffffffffffffffffffffff1673ffffffffffffffffffffffffffffffffffffffff163373ffffffffffffffffffffffffffffffffffffffff16146116ba576040517f08c379a000000000000000000000000000000000000000000000000000000000815260040180806020018281038252600f8152602001807f4d757374206265206d616e61676572000000000000000000000000000000000081525060200191505060405180910390fd5b600073ffffffffffffffffffffffffffffffffffffffff168173ffffffffffffffffffffffffffffffffffffffff161415611740576040517f08c379a00000000000000000000000000000000000000000000000000000000081526004018080602001828103825260308152602001806121706030913960400191505060405180910390fd5b806000806101000a81548173ffffffffffffffffffffffffffffffffffffffff021916908373ffffffffffffffffffffffffffffffffffffffff16021790555050565b6005818154811061179057fe5b90600052602060002090600502016000915090508060000154908060010160009054906101000a900473ffffffffffffffffffffffffffffffffffffffff1690806002018054600181600116156101000203166002900480601f0160208091040260200160405190810160405280929190818152602001828054600181600116156101000203166002900480156118685780601f1061183d57610100808354040283529160200191611868565b820191906000526020600020905b81548152906001019060200180831161184b57829003601f168201915b5050505050908060030154908060040160009054906101000a900460ff16905085565b6000806060600084600580549050811061190d576040517f08c379a00000000000000000000000000000000000000000000000000000000081526004018080602001828103825260128152602001807f4974656d206d757374206265206578697374000000000000000000000000000081525060200191505060405180910390fd5b60006005878154811061191c57fe5b9060005260206000209060050201905080600001548160010160009054906101000a900473ffffffffffffffffffffffffffffffffffffffff16826002018360030154818054600181600116156101000203166002900480601f0160208091040260200160405190810160405280929190818152602001828054600181600116156101000203166002900480156119f45780601f106119c9576101008083540402835291602001916119f4565b820191906000526020600020905b8154815290600101906020018083116119d757829003601f168201915b50505050509150955095509550955050509193509193565b600160009054906101000a900473ffffffffffffffffffffffffffffffffffffffff1681565b806005805490508110611aad576040517f08c379a00000000000000000000000000000000000000000000000000000000081526004018080602001828103825260128152602001807f4974656d206d757374206265206578697374000000000000000000000000000081525060200191505060405180910390fd5b8160058181548110611abb57fe5b906000526020600020906005020160040160009054906101000a900460ff16611b4c576040517f08c379a00000000000000000000000000000000000000000000000000000000081526004018080602001828103825260148152602001807f4974656d206d757374206265206f6e2073616c6500000000000000000000000081525060200191505060405180910390fd5b600073ffffffffffffffffffffffffffffffffffffffff166000809054906101000a900473ffffffffffffffffffffffffffffffffffffffff1673ffffffffffffffffffffffffffffffffffffffff161415611c10576040517f08c379a000000000000000000000000000000000000000000000000000000000815260040180806020018281038252601a8152602001807f506f696e7420636f6e7472616374206d7573742065786973742100000000000081525060200191505060405180910390fd5b600060058481548110611c1f57fe5b906000526020600020906005020190508060000154341015611ca9576040517f08c379a00000000000000000000000000000000000000000000000000000000081526004018080602001828103825260168152602001807f4d757374206861766520656e6f756768206d6f6e65790000000000000000000081525060200191505060405180910390fd5b60008160040160006101000a81548160ff021916908315150217905550600660003373ffffffffffffffffffffffffffffffffffffffff1673ffffffffffffffffffffffffffffffffffffffff168152602001908152602001600020849080600181540180825580915050906001820390600052602060002001600090919290919091505550611d3884611ffe565b6000600760003373ffffffffffffffffffffffffffffffffffffffff1673ffffffffffffffffffffffffffffffffffffffff168152602001908152602001600020905060008060009054906101000a900473ffffffffffffffffffffffffffffffffffffffff1673ffffffffffffffffffffffffffffffffffffffff166370a08231336040518263ffffffff1660e01b8152600401808273ffffffffffffffffffffffffffffffffffffffff1673ffffffffffffffffffffffffffffffffffffffff16815260200191505060206040518083038186803b158015611e1b57600080fd5b505afa158015611e2f573d6000803e3d6000fd5b505050506040513d6020811015611e4557600080fd5b81019080805190602001909291905050509050606481600354620151808560000154420381611e7057fe5b04020281611e7a57fe5b04826001016000828254019250508190555042826000018190555060006103e884600001546002540281611eaa57fe5b0490506000809054906101000a900473ffffffffffffffffffffffffffffffffffffffff1673ffffffffffffffffffffffffffffffffffffffff166340c10f1933836040518363ffffffff1660e01b8152600401808373ffffffffffffffffffffffffffffffffffffffff1673ffffffffffffffffffffffffffffffffffffffff16815260200182815260200192505050602060405180830381600087803b158015611f5557600080fd5b505af1158015611f69573d6000803e3d6000fd5b505050506040513d6020811015611f7f57600080fd5b8101908080519060200190929190505050507f76911b5d8081a7d290dd15cdb0e39e9513ac7e8d1cce3275a7cf1380889abacc878560000154604051808381526020018281526020019250505060405180910390a150505050505050565b60048181548110611fea57fe5b906000526020600020016000915090505481565b60005b60048054905081101561209b57816004828154811061201c57fe5b9060005260206000200154141561208e5760046001600480549050038154811061204257fe5b90600052602060002001546004828154811061205a57fe5b9060005260206000200181905550600480548061207357fe5b6001900381819060005260206000200160009055905561209b565b8080600101915050612001565b5050565b828054600181600116156101000203166002900490600052602060002090601f016020900481019282601f106120e057805160ff191683800117855561210e565b8280016001018555821561210e579182015b8281111561210d5782518255916020019190600101906120f2565b5b50905061211b919061211f565b5090565b61214191905b8082111561213d576000816000905550600101612125565b5090565b9056fe4d61726b65742062616c616e63652068617665206e6f7420656e6f75676820746f20776974686472617721506f696e7420636f6e74726163742061646472657373206d757374206e6f74206265206e756c6c2061646472657373215769746864726177206d757374206265206c657373206f7220657175616c20616d6f756e74206f66206d6f6e657920696e207374616b6521a165627a7a723058201c99da1e9dc91f0e659f45cb769ed84511ac4619ccbd61c3c2e85bef262f44310029",
  "source": "pragma solidity ^0.5.0;\nimport \"./Point.sol\";\n\ncontract Market {\n    struct Item {\n        uint256 price;\n        address owner;\n        string imageUrl;\n        uint256 itemType;\n        bool isSelling;\n    }\n\n    /**\n     * timeStart: Timeline to calculate the next interest amount\n     * currentFund: Current fund without taking next interest (convert to ONE)\n     */\n\n    struct Balance {\n        uint256 timeStart;\n        uint256 currentFund;\n    }\n\n    Point public pointContract;\n    address public managerAddress;\n    uint256 public buyBackRate;\n    uint256 public interestRate;\n\n    uint256[] public sellingItems;\n    Item[] public items;\n    mapping(address => uint256[]) public buyerItems;\n    mapping(address => Balance) public userBalance;\n\n    //EVENT\n\n    /** emitted when a new item is sell in Market\n     */\n    event Sell(uint256 id, uint256 price, address owner);\n    event Buy(uint256 id, uint256 price);\n    event WithdrawStake(uint256 amount);\n\n    modifier onlyManager() {\n        require(msg.sender == managerAddress, \"Must be manager\");\n        _;\n    }\n\n    //MODIFIER\n    modifier itemInList(uint256 _id) {\n        require(_id < items.length, \"Item must be exist\");\n        _;\n    }\n\n    modifier itemOnSale(uint256 _id) {\n        require(items[_id].isSelling, \"Item must be on sale\");\n        _;\n    }\n\n    modifier pointContractMustExist() {\n        require(\n            address(pointContract) != address(0),\n            \"Point contract must exist!\"\n        );\n        _;\n    }\n\n    //FUNCTION\n    constructor() public {\n        managerAddress = msg.sender;\n    }\n\n    function setPointContract(address _pointContractAddress)\n        public\n        onlyManager\n    {\n        require(\n            _pointContractAddress != address(0),\n            \"Point contract address must not be null address!\"\n        );\n\n        pointContract = Point(_pointContractAddress);\n    }\n\n    function setBuyBackRate(uint256 _buyBackRate) public onlyManager {\n        buyBackRate = _buyBackRate;\n    }\n\n    function setInterestRate(uint256 _interestRate) public onlyManager {\n        interestRate = _interestRate;\n    }\n\n    function getAllItems()\n        public\n        view\n        returns (uint256[] memory, bool[] memory)\n    {\n        uint256[] memory price = new uint256[](items.length);\n        bool[] memory isSelling = new bool[](items.length);\n\n        for (uint256 i = 0; i < items.length; i++) {\n            Item storage item = items[i];\n            price[i] = item.price;\n            isSelling[i] = item.isSelling;\n        }\n\n        return (price, isSelling);\n    }\n\n    function getSellingItems() public view returns (uint256[] memory) {\n        return sellingItems;\n    }\n\n    function getItemById(uint256 _id)\n        public\n        view\n        itemInList(_id)\n        returns (\n            uint256,\n            address,\n            string memory,\n            uint256\n        )\n    {\n        Item storage item = items[_id];\n        return (item.price, item.owner, item.imageUrl, item.itemType);\n    }\n\n    function itemsOf(address _owner) public view returns (uint256[] memory) {\n        return buyerItems[_owner];\n    }\n\n    function getMarketBalance() public view returns (uint256) {\n        return address(this).balance;\n    }\n\n    function sell(\n        uint256 _price,\n        address _owner,\n        string memory _imageUrl,\n        uint256 _itemType\n    ) public {\n        require(1 <= _itemType && _itemType <= 5, \"Item type must in 1 -> 5\");\n\n        items.push(Item(_price, _owner, _imageUrl, _itemType, true));\n        sellingItems.push(items.length - 1);\n        emit Sell(items.length - 1, _price, _owner);\n    }\n\n    function buy(uint256 _id)\n        public\n        payable\n        itemInList(_id)\n        itemOnSale(_id)\n        pointContractMustExist\n    {\n        Item storage item = items[_id];\n        require(msg.value >= item.price, \"Must have enough money\");\n        item.isSelling = false;\n        buyerItems[msg.sender].push(_id);\n        removeFromSellingItem(_id);\n\n        // update currentFund before adding point\n        Balance storage balance = userBalance[msg.sender];\n        uint256 currentPoint = pointContract.balanceOf(msg.sender);\n        balance.currentFund +=\n            (((block.timestamp - balance.timeStart) / (1 days)) *\n                interestRate *\n                currentPoint) /\n            100;\n        balance.timeStart = block.timestamp;\n\n        // calculate and back point\n        uint256 pointAmount = (buyBackRate * item.price) / 1000;\n        pointContract.mint(msg.sender, pointAmount);\n\n        emit Buy(_id, item.price);\n    }\n\n    function getWithdrawableStake(address account)\n        public\n        view\n        returns (uint256)\n    {\n        Balance storage balance = userBalance[account];\n        uint256 currentPoint = pointContract.balanceOf(account);\n\n        uint256 withdrawableStake = balance.currentFund +\n            (((block.timestamp - balance.timeStart) / (1 days)) *\n                interestRate *\n                currentPoint) /\n            100;\n        return withdrawableStake;\n    }\n\n    function withdrawStake(uint256 amount)\n        public\n        payable\n        pointContractMustExist\n    {\n        uint256 marketBalance = address(this).balance;\n        require(\n            marketBalance >= amount,\n            \"Market balance have not enough to withdraw!\"\n        );\n\n        Balance storage balance = userBalance[msg.sender];\n        uint256 currentPoint = pointContract.balanceOf(msg.sender);\n\n        uint256 withdrawableStake = balance.currentFund +\n            (((block.timestamp - balance.timeStart) / (1 days)) *\n                interestRate *\n                currentPoint) /\n            100;\n\n        require(\n            withdrawableStake >= amount,\n            \"Withdraw must be less or equal amount of money in stake!\"\n        );\n\n        balance.currentFund = withdrawableStake - amount;\n        balance.timeStart = block.timestamp;\n\n        pointContract.burnSun(\n            msg.sender,\n            (currentPoint * amount) / withdrawableStake\n        );\n\n        msg.sender.transfer(amount);\n        emit WithdrawStake(amount);\n    }\n\n    /** Remove item in sellingItems when it was bought\n     */\n    function removeFromSellingItem(uint256 _id) internal {\n        for (uint256 i; i < sellingItems.length; i++) {\n            if (sellingItems[i] == _id) {\n                sellingItems[i] = sellingItems[sellingItems.length - 1];\n                sellingItems.pop();\n                break;\n            }\n        }\n    }\n}\n",
  "sourcePath": "/home/trinh.van.tan/token-back/contract/contracts/Market.sol",
  "compiler": {
    "name": "solc",
    "version": "0.5.8+commit.23d335f2.Emscripten.clang"
  },
  "schemaVersion": "3.2.4",
  "updatedAt": "2020-09-09T07:11:31.302Z",
  "devdoc": {
    "methods": {}
  },
  "userdoc": {
    "methods": {}
  }
}