{
  "contractName": "Market",
  "abi": [
    {
      "constant": true,
      "inputs": [
        {
          "name": "",
          "type": "address"
        }
      ],
      "name": "userBalance",
      "outputs": [
        {
          "name": "timeStart",
          "type": "uint256"
        },
        {
          "name": "currentFund",
          "type": "uint256"
        }
      ],
      "payable": false,
      "stateMutability": "view",
      "type": "function"
    },
    {
      "constant": true,
      "inputs": [
        {
          "name": "",
          "type": "address"
        },
        {
          "name": "",
          "type": "uint256"
        }
      ],
      "name": "buyerItems",
      "outputs": [
        {
          "name": "",
          "type": "uint256"
        }
      ],
      "payable": false,
      "stateMutability": "view",
      "type": "function"
    },
    {
      "constant": true,
      "inputs": [],
      "name": "rate",
      "outputs": [
        {
          "name": "",
          "type": "uint256"
        }
      ],
      "payable": false,
      "stateMutability": "view",
      "type": "function"
    },
    {
      "constant": true,
      "inputs": [],
      "name": "pointContract",
      "outputs": [
        {
          "name": "",
          "type": "address"
        }
      ],
      "payable": false,
      "stateMutability": "view",
      "type": "function"
    },
    {
      "constant": true,
      "inputs": [],
      "name": "interestRate",
      "outputs": [
        {
          "name": "",
          "type": "uint256"
        }
      ],
      "payable": false,
      "stateMutability": "view",
      "type": "function"
    },
    {
      "constant": true,
      "inputs": [
        {
          "name": "",
          "type": "uint256"
        }
      ],
      "name": "items",
      "outputs": [
        {
          "name": "price",
          "type": "uint256"
        },
        {
          "name": "owner",
          "type": "address"
        },
        {
          "name": "isSelling",
          "type": "bool"
        }
      ],
      "payable": false,
      "stateMutability": "view",
      "type": "function"
    },
    {
      "constant": true,
      "inputs": [],
      "name": "managerAddress",
      "outputs": [
        {
          "name": "",
          "type": "address"
        }
      ],
      "payable": false,
      "stateMutability": "view",
      "type": "function"
    },
    {
      "constant": true,
      "inputs": [
        {
          "name": "",
          "type": "uint256"
        }
      ],
      "name": "sellingItems",
      "outputs": [
        {
          "name": "",
          "type": "uint256"
        }
      ],
      "payable": false,
      "stateMutability": "view",
      "type": "function"
    },
    {
      "inputs": [],
      "payable": false,
      "stateMutability": "nonpayable",
      "type": "constructor"
    },
    {
      "anonymous": false,
      "inputs": [
        {
          "indexed": false,
          "name": "id",
          "type": "uint256"
        },
        {
          "indexed": false,
          "name": "price",
          "type": "uint256"
        },
        {
          "indexed": false,
          "name": "owner",
          "type": "address"
        }
      ],
      "name": "Sell",
      "type": "event"
    },
    {
      "anonymous": false,
      "inputs": [
        {
          "indexed": false,
          "name": "id",
          "type": "uint256"
        },
        {
          "indexed": false,
          "name": "price",
          "type": "uint256"
        }
      ],
      "name": "Buy",
      "type": "event"
    },
    {
      "anonymous": false,
      "inputs": [
        {
          "indexed": false,
          "name": "amount",
          "type": "uint256"
        }
      ],
      "name": "WithdrawStake",
      "type": "event"
    },
    {
      "constant": false,
      "inputs": [
        {
          "name": "_pointContractAddress",
          "type": "address"
        }
      ],
      "name": "setPointContract",
      "outputs": [],
      "payable": false,
      "stateMutability": "nonpayable",
      "type": "function"
    },
    {
      "constant": false,
      "inputs": [
        {
          "name": "_rate",
          "type": "uint256"
        }
      ],
      "name": "setRate",
      "outputs": [],
      "payable": false,
      "stateMutability": "nonpayable",
      "type": "function"
    },
    {
      "constant": false,
      "inputs": [
        {
          "name": "_interestRate",
          "type": "uint256"
        }
      ],
      "name": "setInterestRate",
      "outputs": [],
      "payable": false,
      "stateMutability": "nonpayable",
      "type": "function"
    },
    {
      "constant": true,
      "inputs": [],
      "name": "getAllItems",
      "outputs": [
        {
          "name": "",
          "type": "uint256[]"
        },
        {
          "name": "",
          "type": "bool[]"
        }
      ],
      "payable": false,
      "stateMutability": "view",
      "type": "function"
    },
    {
      "constant": true,
      "inputs": [
        {
          "name": "_id",
          "type": "uint256"
        }
      ],
      "name": "getItemById",
      "outputs": [
        {
          "name": "",
          "type": "uint256"
        },
        {
          "name": "",
          "type": "address"
        }
      ],
      "payable": false,
      "stateMutability": "view",
      "type": "function"
    },
    {
      "constant": true,
      "inputs": [
        {
          "name": "_owner",
          "type": "address"
        }
      ],
      "name": "itemsOf",
      "outputs": [
        {
          "name": "",
          "type": "uint256[]"
        }
      ],
      "payable": false,
      "stateMutability": "view",
      "type": "function"
    },
    {
      "constant": true,
      "inputs": [],
      "name": "getMarketBalance",
      "outputs": [
        {
          "name": "",
          "type": "uint256"
        }
      ],
      "payable": false,
      "stateMutability": "view",
      "type": "function"
    },
    {
      "constant": false,
      "inputs": [
        {
          "name": "_price",
          "type": "uint256"
        },
        {
          "name": "_owner",
          "type": "address"
        }
      ],
      "name": "sell",
      "outputs": [],
      "payable": false,
      "stateMutability": "nonpayable",
      "type": "function"
    },
    {
      "constant": false,
      "inputs": [
        {
          "name": "_id",
          "type": "uint256"
        }
      ],
      "name": "buy",
      "outputs": [],
      "payable": true,
      "stateMutability": "payable",
      "type": "function"
    },
    {
      "constant": true,
      "inputs": [
        {
          "name": "account",
          "type": "address"
        }
      ],
      "name": "getWithdrawableStake",
      "outputs": [
        {
          "name": "",
          "type": "uint256"
        }
      ],
      "payable": false,
      "stateMutability": "view",
      "type": "function"
    },
    {
      "constant": false,
      "inputs": [
        {
          "name": "amount",
          "type": "uint256"
        }
      ],
      "name": "withdrawStake",
      "outputs": [],
      "payable": true,
      "stateMutability": "payable",
      "type": "function"
    }
  ],
  "bytecode": "0x608060405234801561001057600080fd5b5033600160006101000a81548173ffffffffffffffffffffffffffffffffffffffff021916908373ffffffffffffffffffffffffffffffffffffffff160217905550611cfc806100616000396000f3fe6080604052600436106101145760003560e01c80637231a876116100a0578063bfb231d211610064578063bfb231d2146105db578063cd2f071014610668578063cf73a1bc146106ea578063d96a094a14610741578063ff5257eb1461076f57610114565b80637231a8761461043757806373210fb1146104dd5780637c3a00fd14610534578063964eec701461055f578063b5a60d091461058a57610114565b80632c4e722e116100e75780632c4e722e1461028757806334fcf437146102b25780634189a68e146102ed5780634ba1d6aa146103485780635f84f302146103fc57610114565b80630103c92b1461011957806308fff3e8146101855780631f1d6061146101f457806325d5971f14610259575b600080fd5b34801561012557600080fd5b506101686004803603602081101561013c57600080fd5b81019080803573ffffffffffffffffffffffffffffffffffffffff1690602001909291905050506107be565b604051808381526020018281526020019250505060405180910390f35b34801561019157600080fd5b506101de600480360360408110156101a857600080fd5b81019080803573ffffffffffffffffffffffffffffffffffffffff169060200190929190803590602001909291905050506107e2565b6040518082815260200191505060405180910390f35b34801561020057600080fd5b506102436004803603602081101561021757600080fd5b81019080803573ffffffffffffffffffffffffffffffffffffffff169060200190929190505050610810565b6040518082815260200191505060405180910390f35b6102856004803603602081101561026f57600080fd5b8101908080359060200190929190505050610969565b005b34801561029357600080fd5b5061029c610dd0565b6040518082815260200191505060405180910390f35b3480156102be57600080fd5b506102eb600480360360208110156102d557600080fd5b8101908080359060200190929190505050610dd6565b005b3480156102f957600080fd5b506103466004803603604081101561031057600080fd5b8101908080359060200190929190803573ffffffffffffffffffffffffffffffffffffffff169060200190929190505050610ea3565b005b34801561035457600080fd5b5061035d61102b565b604051808060200180602001838103835285818151815260200191508051906020019060200280838360005b838110156103a4578082015181840152602081019050610389565b50505050905001838103825284818151815260200191508051906020019060200280838360005b838110156103e65780820151818401526020810190506103cb565b5050505090500194505050505060405180910390f35b34801561040857600080fd5b506104356004803603602081101561041f57600080fd5b810190808035906020019092919050505061113a565b005b34801561044357600080fd5b506104866004803603602081101561045a57600080fd5b81019080803573ffffffffffffffffffffffffffffffffffffffff169060200190929190505050611207565b6040518080602001828103825283818151815260200191508051906020019060200280838360005b838110156104c95780820151818401526020810190506104ae565b505050509050019250505060405180910390f35b3480156104e957600080fd5b506104f261129e565b604051808273ffffffffffffffffffffffffffffffffffffffff1673ffffffffffffffffffffffffffffffffffffffff16815260200191505060405180910390f35b34801561054057600080fd5b506105496112c3565b6040518082815260200191505060405180910390f35b34801561056b57600080fd5b506105746112c9565b6040518082815260200191505060405180910390f35b34801561059657600080fd5b506105d9600480360360208110156105ad57600080fd5b81019080803573ffffffffffffffffffffffffffffffffffffffff1690602001909291905050506112e8565b005b3480156105e757600080fd5b50610614600480360360208110156105fe57600080fd5b8101908080359060200190929190505050611474565b604051808481526020018373ffffffffffffffffffffffffffffffffffffffff1673ffffffffffffffffffffffffffffffffffffffff16815260200182151515158152602001935050505060405180910390f35b34801561067457600080fd5b506106a16004803603602081101561068b57600080fd5b81019080803590602001909291905050506114d8565b604051808381526020018273ffffffffffffffffffffffffffffffffffffffff1673ffffffffffffffffffffffffffffffffffffffff1681526020019250505060405180910390f35b3480156106f657600080fd5b506106ff6115aa565b604051808273ffffffffffffffffffffffffffffffffffffffff1673ffffffffffffffffffffffffffffffffffffffff16815260200191505060405180910390f35b61076d6004803603602081101561075757600080fd5b81019080803590602001909291905050506115d0565b005b34801561077b57600080fd5b506107a86004803603602081101561079257600080fd5b8101908080359060200190929190505050611b7b565b6040518082815260200191505060405180910390f35b60076020528060005260406000206000915090508060000154908060010154905082565b600660205281600052604060002081815481106107fb57fe5b90600052602060002001600091509150505481565b600080600760008473ffffffffffffffffffffffffffffffffffffffff1673ffffffffffffffffffffffffffffffffffffffff168152602001908152602001600020905060008060009054906101000a900473ffffffffffffffffffffffffffffffffffffffff1673ffffffffffffffffffffffffffffffffffffffff166370a08231856040518263ffffffff1660e01b8152600401808273ffffffffffffffffffffffffffffffffffffffff1673ffffffffffffffffffffffffffffffffffffffff16815260200191505060206040518083038186803b1580156108f457600080fd5b505afa158015610908573d6000803e3d6000fd5b505050506040513d602081101561091e57600080fd5b81019080805190602001909291905050509050600060648260035462015180866000015442038161094b57fe5b0402028161095557fe5b048360010154019050809350505050919050565b600073ffffffffffffffffffffffffffffffffffffffff166000809054906101000a900473ffffffffffffffffffffffffffffffffffffffff1673ffffffffffffffffffffffffffffffffffffffff161415610a2d576040517f08c379a000000000000000000000000000000000000000000000000000000000815260040180806020018281038252601a8152602001807f506f696e7420636f6e7472616374206d7573742065786973742100000000000081525060200191505060405180910390fd5b60003073ffffffffffffffffffffffffffffffffffffffff1631905081811015610aa2576040517f08c379a000000000000000000000000000000000000000000000000000000000815260040180806020018281038252602b815260200180611c3e602b913960400191505060405180910390fd5b6000600760003373ffffffffffffffffffffffffffffffffffffffff1673ffffffffffffffffffffffffffffffffffffffff168152602001908152602001600020905060008060009054906101000a900473ffffffffffffffffffffffffffffffffffffffff1673ffffffffffffffffffffffffffffffffffffffff166370a08231336040518263ffffffff1660e01b8152600401808273ffffffffffffffffffffffffffffffffffffffff1673ffffffffffffffffffffffffffffffffffffffff16815260200191505060206040518083038186803b158015610b8557600080fd5b505afa158015610b99573d6000803e3d6000fd5b505050506040513d6020811015610baf57600080fd5b810190808051906020019092919050505090506000606482600354620151808660000154420381610bdc57fe5b04020281610be657fe5b04836001015401905084811015610c48576040517f08c379a0000000000000000000000000000000000000000000000000000000008152600401808060200182810382526038815260200180611c996038913960400191505060405180910390fd5b84810383600101819055504283600001819055506000809054906101000a900473ffffffffffffffffffffffffffffffffffffffff1673ffffffffffffffffffffffffffffffffffffffff16639c4d3fe0338388860281610ca557fe5b046040518363ffffffff1660e01b8152600401808373ffffffffffffffffffffffffffffffffffffffff1673ffffffffffffffffffffffffffffffffffffffff16815260200182815260200192505050602060405180830381600087803b158015610d0f57600080fd5b505af1158015610d23573d6000803e3d6000fd5b505050506040513d6020811015610d3957600080fd5b8101908080519060200190929190505050503373ffffffffffffffffffffffffffffffffffffffff166108fc869081150290604051600060405180830381858888f19350505050158015610d91573d6000803e3d6000fd5b507fff34585d7a2232a89ef664b8d4790f8fa9f92983c01c90d1903218e802042881856040518082815260200191505060405180910390a15050505050565b60025481565b600160009054906101000a900473ffffffffffffffffffffffffffffffffffffffff1673ffffffffffffffffffffffffffffffffffffffff163373ffffffffffffffffffffffffffffffffffffffff1614610e99576040517f08c379a000000000000000000000000000000000000000000000000000000000815260040180806020018281038252600f8152602001807f4d757374206265206d616e61676572000000000000000000000000000000000081525060200191505060405180910390fd5b8060028190555050565b600560405180606001604052808481526020018373ffffffffffffffffffffffffffffffffffffffff16815260200160011515815250908060018154018082558091505090600182039060005260206000209060020201600090919290919091506000820151816000015560208201518160010160006101000a81548173ffffffffffffffffffffffffffffffffffffffff021916908373ffffffffffffffffffffffffffffffffffffffff16021790555060408201518160010160146101000a81548160ff021916908315150217905550505050600460016005805490500390806001815401808255809150509060018203906000526020600020016000909192909190915055507f1cdb5ee3c47e1a706ac452b89698e5e3f2ff4f835ca72dde8936d0f4fcf37d816001600580549050038383604051808481526020018381526020018273ffffffffffffffffffffffffffffffffffffffff1673ffffffffffffffffffffffffffffffffffffffff168152602001935050505060405180910390a15050565b60608060606005805490506040519080825280602002602001820160405280156110645781602001602082028038833980820191505090505b509050606060058054905060405190808252806020026020018201604052801561109d5781602001602082028038833980820191505090505b50905060008090505b60058054905081101561112d576000600582815481106110c257fe5b9060005260206000209060020201905080600001548483815181106110e357fe5b6020026020010181815250508060010160149054906101000a900460ff1683838151811061110d57fe5b6020026020010190151590811515815250505080806001019150506110a6565b5081819350935050509091565b600160009054906101000a900473ffffffffffffffffffffffffffffffffffffffff1673ffffffffffffffffffffffffffffffffffffffff163373ffffffffffffffffffffffffffffffffffffffff16146111fd576040517f08c379a000000000000000000000000000000000000000000000000000000000815260040180806020018281038252600f8152602001807f4d757374206265206d616e61676572000000000000000000000000000000000081525060200191505060405180910390fd5b8060038190555050565b6060600660008373ffffffffffffffffffffffffffffffffffffffff1673ffffffffffffffffffffffffffffffffffffffff16815260200190815260200160002080548060200260200160405190810160405280929190818152602001828054801561129257602002820191906000526020600020905b81548152602001906001019080831161127e575b50505050509050919050565b6000809054906101000a900473ffffffffffffffffffffffffffffffffffffffff1681565b60035481565b60003073ffffffffffffffffffffffffffffffffffffffff1631905090565b600160009054906101000a900473ffffffffffffffffffffffffffffffffffffffff1673ffffffffffffffffffffffffffffffffffffffff163373ffffffffffffffffffffffffffffffffffffffff16146113ab576040517f08c379a000000000000000000000000000000000000000000000000000000000815260040180806020018281038252600f8152602001807f4d757374206265206d616e61676572000000000000000000000000000000000081525060200191505060405180910390fd5b600073ffffffffffffffffffffffffffffffffffffffff168173ffffffffffffffffffffffffffffffffffffffff161415611431576040517f08c379a0000000000000000000000000000000000000000000000000000000008152600401808060200182810382526030815260200180611c696030913960400191505060405180910390fd5b806000806101000a81548173ffffffffffffffffffffffffffffffffffffffff021916908373ffffffffffffffffffffffffffffffffffffffff16021790555050565b6005818154811061148157fe5b90600052602060002090600202016000915090508060000154908060010160009054906101000a900473ffffffffffffffffffffffffffffffffffffffff16908060010160149054906101000a900460ff16905083565b600080826005805490508110611556576040517f08c379a00000000000000000000000000000000000000000000000000000000081526004018080602001828103825260128152602001807f4974656d206d757374206265206578697374000000000000000000000000000081525060200191505060405180910390fd5b60006005858154811061156557fe5b9060005260206000209060020201905080600001548160010160009054906101000a900473ffffffffffffffffffffffffffffffffffffffff16935093505050915091565b600160009054906101000a900473ffffffffffffffffffffffffffffffffffffffff1681565b80600580549050811061164b576040517f08c379a00000000000000000000000000000000000000000000000000000000081526004018080602001828103825260128152602001807f4974656d206d757374206265206578697374000000000000000000000000000081525060200191505060405180910390fd5b816005818154811061165957fe5b906000526020600020906002020160010160149054906101000a900460ff166116ea576040517f08c379a00000000000000000000000000000000000000000000000000000000081526004018080602001828103825260148152602001807f4974656d206d757374206265206f6e2073616c6500000000000000000000000081525060200191505060405180910390fd5b600073ffffffffffffffffffffffffffffffffffffffff166000809054906101000a900473ffffffffffffffffffffffffffffffffffffffff1673ffffffffffffffffffffffffffffffffffffffff1614156117ae576040517f08c379a000000000000000000000000000000000000000000000000000000000815260040180806020018281038252601a8152602001807f506f696e7420636f6e7472616374206d7573742065786973742100000000000081525060200191505060405180910390fd5b6000600584815481106117bd57fe5b906000526020600020906002020190508060000154341015611847576040517f08c379a00000000000000000000000000000000000000000000000000000000081526004018080602001828103825260168152602001807f4d757374206861766520656e6f756768206d6f6e65790000000000000000000081525060200191505060405180910390fd5b60008160010160146101000a81548160ff021916908315150217905550600660003373ffffffffffffffffffffffffffffffffffffffff1673ffffffffffffffffffffffffffffffffffffffff1681526020019081526020016000208490806001815401808255809150509060018203906000526020600020016000909192909190915055506118d684611b9c565b6000600760003373ffffffffffffffffffffffffffffffffffffffff1673ffffffffffffffffffffffffffffffffffffffff168152602001908152602001600020905060008060009054906101000a900473ffffffffffffffffffffffffffffffffffffffff1673ffffffffffffffffffffffffffffffffffffffff166370a08231336040518263ffffffff1660e01b8152600401808273ffffffffffffffffffffffffffffffffffffffff1673ffffffffffffffffffffffffffffffffffffffff16815260200191505060206040518083038186803b1580156119b957600080fd5b505afa1580156119cd573d6000803e3d6000fd5b505050506040513d60208110156119e357600080fd5b81019080805190602001909291905050509050606481600354620151808560000154420381611a0e57fe5b04020281611a1857fe5b04826001016000828254019250508190555042826000018190555060006103e884600001546002540281611a4857fe5b0490506000809054906101000a900473ffffffffffffffffffffffffffffffffffffffff1673ffffffffffffffffffffffffffffffffffffffff166340c10f1933836040518363ffffffff1660e01b8152600401808373ffffffffffffffffffffffffffffffffffffffff1673ffffffffffffffffffffffffffffffffffffffff16815260200182815260200192505050602060405180830381600087803b158015611af357600080fd5b505af1158015611b07573d6000803e3d6000fd5b505050506040513d6020811015611b1d57600080fd5b8101908080519060200190929190505050507f76911b5d8081a7d290dd15cdb0e39e9513ac7e8d1cce3275a7cf1380889abacc878560000154604051808381526020018281526020019250505060405180910390a150505050505050565b60048181548110611b8857fe5b906000526020600020016000915090505481565b60005b600480549050811015611c39578160048281548110611bba57fe5b90600052602060002001541415611c2c57600460016004805490500381548110611be057fe5b906000526020600020015460048281548110611bf857fe5b90600052602060002001819055506004805480611c1157fe5b60019003818190600052602060002001600090559055611c39565b8080600101915050611b9f565b505056fe4d61726b65742062616c616e63652068617665206e6f7420656e6f75676820746f20776974686472617721506f696e7420636f6e74726163742061646472657373206d757374206e6f74206265206e756c6c2061646472657373215769746864726177206d757374206265206c657373206f7220657175616c20616d6f756e74206f66206d6f6e657920696e207374616b6521a165627a7a723058203aedfe7641c7d968f558669775f1887c17f0d7c67f9f6491a43739d4e1ebd63b0029",
  "source": "pragma solidity ^0.5.0;\nimport \"./Point.sol\";\n\ncontract Market {\n    struct Item {\n        uint256 price;\n        address owner;\n        bool isSelling;\n    }\n\n    /**\n     * timeStart: Timeline to calculate the next interest amount\n     * currentFund: Current fund without taking next interest (convert to ONE)\n     */\n\n    struct Balance {\n        uint256 timeStart;\n        uint256 currentFund;\n    }\n\n    Point public pointContract;\n    address public managerAddress;\n    uint256 public rate;\n    uint256 public interestRate;\n\n    uint256[] public sellingItems;\n    Item[] public items;\n    mapping(address => uint256[]) public buyerItems;\n    mapping(address => Balance) public userBalance;\n\n    //EVENT\n\n    /** emitted when a new item is sell in Market\n     */\n    event Sell(uint256 id, uint256 price, address owner);\n    event Buy(uint256 id, uint256 price);\n    event WithdrawStake(uint256 amount);\n\n    modifier onlyManager() {\n        require(msg.sender == managerAddress, \"Must be manager\");\n        _;\n    }\n\n    //MODIFIER\n    modifier itemInList(uint256 _id) {\n        require(_id < items.length, \"Item must be exist\");\n        _;\n    }\n\n    modifier itemOnSale(uint256 _id) {\n        require(items[_id].isSelling, \"Item must be on sale\");\n        _;\n    }\n\n    modifier pointContractMustExist() {\n        require(\n            address(pointContract) != address(0),\n            \"Point contract must exist!\"\n        );\n        _;\n    }\n\n    //FUNCTION\n    constructor() public {\n        managerAddress = msg.sender;\n    }\n\n    function setPointContract(address _pointContractAddress)\n        public\n        onlyManager\n    {\n        require(\n            _pointContractAddress != address(0),\n            \"Point contract address must not be null address!\"\n        );\n\n        pointContract = Point(_pointContractAddress);\n    }\n\n    function setRate(uint256 _rate) public onlyManager {\n        rate = _rate;\n    }\n\n    function setInterestRate(uint256 _interestRate) public onlyManager {\n        interestRate = _interestRate;\n    }\n\n    function getAllItems()\n        public\n        view\n        returns (uint256[] memory, bool[] memory)\n    {\n        uint256[] memory price = new uint256[](items.length);\n        bool[] memory isSelling = new bool[](items.length);\n\n        for (uint256 i = 0; i < items.length; i++) {\n            Item storage item = items[i];\n            price[i] = item.price;\n            isSelling[i] = item.isSelling;\n        }\n\n        return (price, isSelling);\n    }\n\n    function getItemById(uint256 _id)\n        public\n        view\n        itemInList(_id)\n        returns (uint256, address)\n    {\n        Item storage item = items[_id];\n        return (item.price, item.owner);\n    }\n\n    function itemsOf(address _owner) public view returns (uint256[] memory) {\n        return buyerItems[_owner];\n    }\n\n    function getMarketBalance() public view returns (uint256) {\n        return address(this).balance;\n    }\n\n    function sell(uint256 _price, address _owner) public {\n        items.push(Item(_price, _owner, true));\n        sellingItems.push(items.length - 1);\n        emit Sell(items.length - 1, _price, _owner);\n    }\n\n    function buy(uint256 _id)\n        public\n        payable\n        itemInList(_id)\n        itemOnSale(_id)\n        pointContractMustExist\n    {\n        Item storage item = items[_id];\n        require(msg.value >= item.price, \"Must have enough money\");\n        item.isSelling = false;\n        buyerItems[msg.sender].push(_id);\n        removeFromSellingItem(_id);\n\n        // update currentFund before adding point\n        Balance storage balance = userBalance[msg.sender];\n        uint256 currentPoint = pointContract.balanceOf(msg.sender);\n        balance.currentFund +=\n            (((block.timestamp - balance.timeStart) / (1 days)) *\n                interestRate *\n                currentPoint) /\n            100;\n        balance.timeStart = block.timestamp;\n\n        // calculate and back point\n        uint256 pointAmount = (rate * item.price) / 1000;\n        pointContract.mint(msg.sender, pointAmount);\n\n        emit Buy(_id, item.price);\n    }\n\n    function getWithdrawableStake(address account)\n        public\n        view\n        returns (uint256)\n    {\n        Balance storage balance = userBalance[account];\n        uint256 currentPoint = pointContract.balanceOf(account);\n\n        uint256 withdrawableStake = balance.currentFund +\n            (((block.timestamp - balance.timeStart) / (1 days)) *\n                interestRate *\n                currentPoint) /\n            100;\n        return withdrawableStake;\n    }\n\n    function withdrawStake(uint256 amount)\n        public\n        payable\n        pointContractMustExist\n    {\n        uint256 marketBalance = address(this).balance;\n        require(\n            marketBalance >= amount,\n            \"Market balance have not enough to withdraw!\"\n        );\n\n        Balance storage balance = userBalance[msg.sender];\n        uint256 currentPoint = pointContract.balanceOf(msg.sender);\n\n        uint256 withdrawableStake = balance.currentFund +\n            (((block.timestamp - balance.timeStart) / (1 days)) *\n                interestRate *\n                currentPoint) /\n            100;\n\n        require(\n            withdrawableStake >= amount,\n            \"Withdraw must be less or equal amount of money in stake!\"\n        );\n\n        balance.currentFund = withdrawableStake - amount;\n        balance.timeStart = block.timestamp;\n\n        pointContract.burnSun(\n            msg.sender,\n            (currentPoint * amount) / withdrawableStake\n        );\n\n        msg.sender.transfer(amount);\n        emit WithdrawStake(amount);\n    }\n\n    /** Remove item in sellingItems when it was bought\n     */\n    function removeFromSellingItem(uint256 _id) internal {\n        for (uint256 i; i < sellingItems.length; i++) {\n            if (sellingItems[i] == _id) {\n                sellingItems[i] = sellingItems[sellingItems.length - 1];\n                sellingItems.pop();\n                break;\n            }\n        }\n    }\n}\n",
  "sourcePath": "/Users/chientm/Workspace/blockchain/Harmony/token-back/contract/contracts/Market.sol",
  "compiler": {
    "name": "solc",
    "version": "0.5.8+commit.23d335f2.Emscripten.clang"
  },
  "schemaVersion": "3.2.4",
  "updatedAt": "2020-09-08T02:07:14.659Z",
  "networkType": "ethereum",
  "devdoc": {
    "methods": {}
  },
  "userdoc": {
    "methods": {}
  }
}